:100000000C944A000C9467000C9467000C946700F1
:100010000C9467000C9467000C9467000C946700C4
:100020000C9467000C9467000C9467000C941E02FB
:100030000C9467000C9467000C9467000C946700A4
:100040000C9467000C9467000C9467000C94670094
:100050000C9467000C9467000C9467000C94670084
:100060000C9428030C946700A101A401A701E901E5
:10007000E901E901E901E901E901E901AA01B201A6
:10008000BA01C201E901E901E901E901E901E90176
:10009000CA01DA0111241FBECFEFD8E0DEBFCDBF09
:1000A00011E0A0E0B1E0E0EEF7E002C005900D92B3
:1000B000A030B107D9F721E0A0E0B1E001C01D9266
:1000C000AC33B207E1F70E9420010C94EE030C94CC
:1000D0000000809105018093040108958BB18F6029
:1000E0008BB95898000089B18095807F589AA1F00B
:1000F000803251F020F4803109F45DC00BC08034AF
:1001000029F0803829F006C084E3089587E3089534
:100110008AE2089580E008955998000089B1809599
:10012000807F599AA1F0803251F020F4803109F497
:1001300044C00BC0803429F0803829F006C085E324
:10014000089588E3089580E3089580E008955A981B
:10015000000089B18095807F5A9A99F0803249F0E9
:1001600018F4803161F10BC0803429F0803829F017
:1001700006C086E3089589E3089583E2089580E048
:1001800008955B98000089B18095807F5B9AC9F0E3
:10019000803249F018F48031B1F00BC0803429F07E
:1001A000803829F006C082E4089583E4089584E449
:1001B000089580E0089581E3089582E3089583E33C
:1001C000089580E0089581E408959091040180915C
:1001D0000501891771F0E92FF0E0EA5EFE4F80819A
:1001E0009F5F903219F090930401089510920401DA
:1001F000089580E008958091050190910401891788
:1002000010F0891B0895805E891B08958091030179
:100210008093380181E00E94EC020E9469000895F9
:100220000E94E5008093380181E00E94EC0208956D
:100230000E94FB008093380181E00E94EC02089547
:10024000209A28988FE08AB98FEF8BB987B18F6099
:1002500087B988B1807F88B981E090E00E94D80397
:1002600080933701823040F081E08093370161E074
:1002700081E090E00E94E00380E090E00E94D803DB
:1002800080933601823038F01092360160E080E0D1
:1002900090E00E94E00382E896E0909389008093CA
:1002A0008800E1E8F0E080818B608083EFE6F0E099
:1002B0008081826080838AE50E94D90283B7817F32
:1002C00083BF409A2FEF80E792E02150804090401A
:1002D000E1F700C000004098419AEFEFF0E722E01C
:1002E000E150F0402040E1F700C000004198429A00
:1002F0008FEF90E7E2E081509040E040E1F700C0EE
:1003000000004298439AFFEF20E782E0F15020403E
:100310008040E1F700C0000043987894C1E0DFE13D
:100320000E941A03882309F454C00E94FB0290E043
:100330008631910508F04DC0FC01EC5CFF4F0C9438
:10034000D2030E94100145C00E94060142C00E94D3
:1003500018013FC00E94FB02882311F0409A39C067
:10036000409837C00E94FB02882311F0419A31C0A7
:1003700041982FC00E94FB02882311F0429A29C0A5
:10038000429827C00E94FB02882311F0439A21C0A3
:1003900043981FC00E94FB02882319F0C0933701C5
:1003A00002C0109237016091370181E090E00E9415
:1003B000E0030FC00E94FB02882319F0C0933601AE
:1003C00002C0109236016091360180E090E00E94F8
:1003D000E0030E94FB008F3188F08091370181118A
:1003E000C093020180910501811103C0D0930501E2
:1003F00005C0809105018150809305018091020123
:100400008823A1F01092020186E490E0289AEFEC94
:10041000F7E03197F1F700C000002898EFECF7E023
:100420003197F1F700C00000019781F783B7816031
:1004300083BF889583B78E7F83BF72CF1F920F9241
:100440000FB60F9211242F933F934F935F936F93A7
:100450007F938F939F93AF93BF93EF93FF930E94EC
:100460006E008093030180910301811103C01092FB
:1004700001018EC080910101833061F08B34C9F19C
:1004800081116AC0809103018093000181E0809313
:1004900001017EC08091030190910001981326C054
:1004A000E0910501F0E080910301EA5EFE4F808358
:1004B000809105018F5F80930501803209F059C05A
:1004C0001092050156C08AE090E0289AE7EEF3E02A
:1004D0003197F1F700C000002898E7EEF3E031977C
:1004E000F1F700C00000019781F752C0109201019E
:1004F0004FC080913601882309F44AC080910301DE
:1005000090910001981325C0E0910501F0E08091E1
:100510000301EA5EFE4F8083809105018F5F809327
:100520000501803271F5109205012BC08AE090E040
:10053000289AE7EEF3E03197F1F700C00000289821
:10054000E7EEF3E03197F1F700C00000019781F783
:100550001FC0109201011CC0909103012091000165
:10056000291304C08F5F8093010112C01092010112
:100570000FC084E080930101809137018111A3CFE6
:1005800007C08CE380930101809137018111CECFA8
:10059000FF91EF91BF91AF919F918F917F916F915B
:1005A0005F914F913F912F910F900FBE0F901F9031
:1005B0001895880F8093BA0085EC8093BC00109248
:1005C0000B0110920A01109207011092090110927A
:1005D0000801109215010895909115019111FCCF19
:1005E00080930C011092070185EC8093BC0081E0A0
:1005F000809315010895209108013091090180919F
:100600000A0190910B0128173907C9F3F901E35F3B
:10061000FE4F80812F5F3F4F3093090120930801E7
:10062000109206012830310521F410920901109230
:100630000801089520910A0130910B0181E0409159
:100640000801509109014217530709F480E0089509
:100650001F920F920FB60F9211242F933F938F93F7
:100660009F93EF93FF938091B900803909F448C0BC
:1006700078F48037F1F130F4882309F47FC08036B4
:10068000C1F180C08038E1F1883809F477C07AC0C0
:10069000883A81F038F4883909F470C0803A09F456
:1006A00067C070C0803CF9F0883C09F467C0883BA3
:1006B00009F068C0E091070181E08E0F8093070187
:1006C000F0E0E85CFE4F80818093BB0080910701E1
:1006D000803211F41092070185EC8093BC0081E018
:1006E0008093150154C085EC8093BC0010921501D5
:1006F0004EC085EC8093BC0081E08093150147C01B
:1007000080910601882321F081E08093020129C0B5
:1007100080910A0190910B019C012F5F3F4F309314
:100720000B0120930A012091BB00FC01E35FFE4F07
:10073000208380910A0190910B01089721F4109277
:100740000B0110920A0120910A0130910B01809156
:100750000801909109012817390719F481E0809365
:10076000060185EC8093BC0081E0809315010FC0E9
:1007700085EC8093BC001092150109C080E980933C
:10078000BC0005C085EC8093BC0010921501FF9160
:10079000EF919F918F913F912F910F900FBE0F90EE
:1007A0001F901895EE0FFF1F0590F491E02D09940E
:1007B000F999FECF92BD81BDF89A992780B5089529
:1007C000262FF999FECF1FBA92BD81BD20BD0FB66D
:1007D000F894FA9AF99A0FBE01960895F894FFCF0B
:00000001FF
